{
  "contractName": "JewelleryContract",
  "abi": [
    {
      "inputs": [],
      "stateMutability": "nonpayable",
      "type": "constructor"
    },
    {
      "anonymous": false,
      "inputs": [
        {
          "indexed": false,
          "internalType": "uint256",
          "name": "id",
          "type": "uint256"
        },
        {
          "indexed": false,
          "internalType": "string",
          "name": "name",
          "type": "string"
        },
        {
          "indexed": false,
          "internalType": "string",
          "name": "jewelType",
          "type": "string"
        },
        {
          "indexed": false,
          "internalType": "string",
          "name": "material",
          "type": "string"
        },
        {
          "indexed": false,
          "internalType": "string",
          "name": "gemstoneType",
          "type": "string"
        },
        {
          "indexed": false,
          "internalType": "string",
          "name": "productionDate",
          "type": "string"
        },
        {
          "indexed": false,
          "internalType": "string",
          "name": "description",
          "type": "string"
        },
        {
          "indexed": false,
          "internalType": "uint256",
          "name": "price",
          "type": "uint256"
        },
        {
          "indexed": false,
          "internalType": "address",
          "name": "owner",
          "type": "address"
        },
        {
          "indexed": false,
          "internalType": "enum JewelleryContract.JewelleryStatus",
          "name": "status",
          "type": "uint8"
        }
      ],
      "name": "JewelleryCreated",
      "type": "event"
    },
    {
      "anonymous": false,
      "inputs": [
        {
          "indexed": false,
          "internalType": "uint256",
          "name": "id",
          "type": "uint256"
        },
        {
          "indexed": false,
          "internalType": "string",
          "name": "name",
          "type": "string"
        },
        {
          "indexed": false,
          "internalType": "uint256",
          "name": "price",
          "type": "uint256"
        },
        {
          "indexed": false,
          "internalType": "address payable",
          "name": "owner",
          "type": "address"
        },
        {
          "indexed": false,
          "internalType": "enum JewelleryContract.JewelleryStatus",
          "name": "status",
          "type": "uint8"
        }
      ],
      "name": "JewelleryPurchased",
      "type": "event"
    },
    {
      "inputs": [
        {
          "internalType": "uint256",
          "name": "",
          "type": "uint256"
        }
      ],
      "name": "listOfJewels",
      "outputs": [
        {
          "internalType": "uint256",
          "name": "jewelId",
          "type": "uint256"
        },
        {
          "internalType": "string",
          "name": "jewelName",
          "type": "string"
        },
        {
          "internalType": "string",
          "name": "jewelType",
          "type": "string"
        },
        {
          "internalType": "string",
          "name": "jewelMaterial",
          "type": "string"
        },
        {
          "internalType": "string",
          "name": "gemstoneType",
          "type": "string"
        },
        {
          "internalType": "string",
          "name": "productionDate",
          "type": "string"
        },
        {
          "internalType": "string",
          "name": "description",
          "type": "string"
        },
        {
          "internalType": "uint256",
          "name": "price",
          "type": "uint256"
        },
        {
          "internalType": "address payable",
          "name": "ownerId",
          "type": "address"
        },
        {
          "internalType": "enum JewelleryContract.JewelleryStatus",
          "name": "status",
          "type": "uint8"
        }
      ],
      "stateMutability": "view",
      "type": "function"
    },
    {
      "inputs": [
        {
          "internalType": "string",
          "name": "jewelName",
          "type": "string"
        },
        {
          "internalType": "string",
          "name": "jewelType",
          "type": "string"
        },
        {
          "internalType": "string",
          "name": "jewelMaterial",
          "type": "string"
        },
        {
          "internalType": "string",
          "name": "gemstoneType",
          "type": "string"
        },
        {
          "internalType": "string",
          "name": "productionDate",
          "type": "string"
        },
        {
          "internalType": "string",
          "name": "description",
          "type": "string"
        },
        {
          "internalType": "uint256",
          "name": "price",
          "type": "uint256"
        }
      ],
      "name": "addJewellery",
      "outputs": [],
      "stateMutability": "nonpayable",
      "type": "function"
    },
    {
      "inputs": [],
      "name": "getJewelleryCount",
      "outputs": [
        {
          "internalType": "uint256",
          "name": "",
          "type": "uint256"
        }
      ],
      "stateMutability": "view",
      "type": "function"
    },
    {
      "inputs": [],
      "name": "getCompanyName",
      "outputs": [
        {
          "internalType": "string",
          "name": "",
          "type": "string"
        }
      ],
      "stateMutability": "view",
      "type": "function"
    },
    {
      "inputs": [
        {
          "internalType": "uint256",
          "name": "_id",
          "type": "uint256"
        }
      ],
      "name": "purchaseJewellery",
      "outputs": [],
      "stateMutability": "payable",
      "type": "function"
    }
  ],
  "bytecode": "0x60806040523480156200001157600080fd5b506040518060400160405280600881526020017f52616469616e636500000000000000000000000000000000000000000000000081525060009081620000589190620002d9565b50620003c0565b600081519050919050565b7f4e487b7100000000000000000000000000000000000000000000000000000000600052604160045260246000fd5b7f4e487b7100000000000000000000000000000000000000000000000000000000600052602260045260246000fd5b60006002820490506001821680620000e157607f821691505b602082108103620000f757620000f662000099565b5b50919050565b60008190508160005260206000209050919050565b60006020601f8301049050919050565b600082821b905092915050565b600060088302620001617fffffffffffffffffffffffffffffffffffffffffffffffffffffffffffffffff8262000122565b6200016d868362000122565b95508019841693508086168417925050509392505050565b6000819050919050565b6000819050919050565b6000620001ba620001b4620001ae8462000185565b6200018f565b62000185565b9050919050565b6000819050919050565b620001d68362000199565b620001ee620001e582620001c1565b8484546200012f565b825550505050565b600090565b62000205620001f6565b62000212818484620001cb565b505050565b5b818110156200023a576200022e600082620001fb565b60018101905062000218565b5050565b601f82111562000289576200025381620000fd565b6200025e8462000112565b810160208510156200026e578190505b620002866200027d8562000112565b83018262000217565b50505b505050565b600082821c905092915050565b6000620002ae600019846008026200028e565b1980831691505092915050565b6000620002c983836200029b565b9150826002028217905092915050565b620002e4826200005f565b67ffffffffffffffff8111156200030057620002ff6200006a565b5b6200030c8254620000c8565b620003198282856200023e565b600060209050601f8311600181146200035157600084156200033c578287015190505b620003488582620002bb565b865550620003b8565b601f1984166200036186620000fd565b60005b828110156200038b5784890151825560018201915060208501945060208101905062000364565b86831015620003ab5784890151620003a7601f8916826200029b565b8355505b6001600288020188555050505b505050505050565b6118f880620003d06000396000f3fe60806040526004361061004a5760003560e01c806314c693581461004f57806343cfbd65146100955780637d60b9c1146100c057806387183ada146100eb5780639e543b5d14610107575b600080fd5b34801561005b57600080fd5b5061007660048036038101906100719190610ef2565b610130565b60405161008c9a99989796959493929190611076565b60405180910390f35b3480156100a157600080fd5b506100aa6104e1565b6040516100b7919061113c565b60405180910390f35b3480156100cc57600080fd5b506100d5610573565b6040516100e2919061115e565b60405180910390f35b61010560048036038101906101009190610ef2565b61057d565b005b34801561011357600080fd5b5061012e600480360381019061012991906112ae565b610c86565b005b600360205280600052604060002060009150905080600001549080600101805461015990611427565b80601f016020809104026020016040519081016040528092919081815260200182805461018590611427565b80156101d25780601f106101a7576101008083540402835291602001916101d2565b820191906000526020600020905b8154815290600101906020018083116101b557829003601f168201915b5050505050908060020180546101e790611427565b80601f016020809104026020016040519081016040528092919081815260200182805461021390611427565b80156102605780601f1061023557610100808354040283529160200191610260565b820191906000526020600020905b81548152906001019060200180831161024357829003601f168201915b50505050509080600301805461027590611427565b80601f01602080910402602001604051908101604052809291908181526020018280546102a190611427565b80156102ee5780601f106102c3576101008083540402835291602001916102ee565b820191906000526020600020905b8154815290600101906020018083116102d157829003601f168201915b50505050509080600401805461030390611427565b80601f016020809104026020016040519081016040528092919081815260200182805461032f90611427565b801561037c5780601f106103515761010080835404028352916020019161037c565b820191906000526020600020905b81548152906001019060200180831161035f57829003601f168201915b50505050509080600501805461039190611427565b80601f01602080910402602001604051908101604052809291908181526020018280546103bd90611427565b801561040a5780601f106103df5761010080835404028352916020019161040a565b820191906000526020600020905b8154815290600101906020018083116103ed57829003601f168201915b50505050509080600601805461041f90611427565b80601f016020809104026020016040519081016040528092919081815260200182805461044b90611427565b80156104985780601f1061046d57610100808354040283529160200191610498565b820191906000526020600020905b81548152906001019060200180831161047b57829003601f168201915b5050505050908060070154908060080160009054906101000a900473ffffffffffffffffffffffffffffffffffffffff16908060080160149054906101000a900460ff1690508a565b6060600080546104f090611427565b80601f016020809104026020016040519081016040528092919081815260200182805461051c90611427565b80156105695780601f1061053e57610100808354040283529160200191610569565b820191906000526020600020905b81548152906001019060200180831161054c57829003601f168201915b5050505050905090565b6000600154905090565b60006003600083815260200190815260200160002060405180610140016040529081600082015481526020016001820180546105b890611427565b80601f01602080910402602001604051908101604052809291908181526020018280546105e490611427565b80156106315780601f1061060657610100808354040283529160200191610631565b820191906000526020600020905b81548152906001019060200180831161061457829003601f168201915b5050505050815260200160028201805461064a90611427565b80601f016020809104026020016040519081016040528092919081815260200182805461067690611427565b80156106c35780601f10610698576101008083540402835291602001916106c3565b820191906000526020600020905b8154815290600101906020018083116106a657829003601f168201915b505050505081526020016003820180546106dc90611427565b80601f016020809104026020016040519081016040528092919081815260200182805461070890611427565b80156107555780601f1061072a57610100808354040283529160200191610755565b820191906000526020600020905b81548152906001019060200180831161073857829003601f168201915b5050505050815260200160048201805461076e90611427565b80601f016020809104026020016040519081016040528092919081815260200182805461079a90611427565b80156107e75780601f106107bc576101008083540402835291602001916107e7565b820191906000526020600020905b8154815290600101906020018083116107ca57829003601f168201915b5050505050815260200160058201805461080090611427565b80601f016020809104026020016040519081016040528092919081815260200182805461082c90611427565b80156108795780601f1061084e57610100808354040283529160200191610879565b820191906000526020600020905b81548152906001019060200180831161085c57829003601f168201915b5050505050815260200160068201805461089290611427565b80601f01602080910402602001604051908101604052809291908181526020018280546108be90611427565b801561090b5780601f106108e05761010080835404028352916020019161090b565b820191906000526020600020905b8154815290600101906020018083116108ee57829003601f168201915b50505050508152602001600782015481526020016008820160009054906101000a900473ffffffffffffffffffffffffffffffffffffffff1673ffffffffffffffffffffffffffffffffffffffff1673ffffffffffffffffffffffffffffffffffffffff1681526020016008820160149054906101000a900460ff16600181111561099957610998610fff565b5b60018111156109ab576109aa610fff565b5b81525050905060008161010001519050600082600001511180156109d55750600154826000015111155b6109de57600080fd5b8160e001513410156109ef57600080fd5b60006001811115610a0357610a02610fff565b5b8261012001516001811115610a1b57610a1a610fff565b5b14610a2557600080fd5b3373ffffffffffffffffffffffffffffffffffffffff168173ffffffffffffffffffffffffffffffffffffffff1603610a5d57600080fd5b3382610100019073ffffffffffffffffffffffffffffffffffffffff16908173ffffffffffffffffffffffffffffffffffffffff168152505060018261012001906001811115610ab057610aaf610fff565b5b90816001811115610ac457610ac3610fff565b5b815250508160036000858152602001908152602001600020600082015181600001556020820151816001019081610afb9190611604565b506040820151816002019081610b119190611604565b506060820151816003019081610b279190611604565b506080820151816004019081610b3d9190611604565b5060a0820151816005019081610b539190611604565b5060c0820151816006019081610b699190611604565b5060e082015181600701556101008201518160080160006101000a81548173ffffffffffffffffffffffffffffffffffffffff021916908373ffffffffffffffffffffffffffffffffffffffff1602179055506101208201518160080160146101000a81548160ff02191690836001811115610be857610be7610fff565b5b02179055509050508073ffffffffffffffffffffffffffffffffffffffff166108fc349081150290604051600060405180830381858888f19350505050158015610c36573d6000803e3d6000fd5b507f8fa07404d82949fb45281597fb12aafae2f5bc1f2fbb0b389f894810e892f8fc60015483602001518460e00151336001604051610c799594939291906116d6565b60405180910390a1505050565b6000875111610c9457600080fd5b60008111610ca157600080fd5b60016000815480929190610cb49061175f565b919050555060405180610140016040528060015481526020018881526020018781526020018681526020018581526020018481526020018381526020018281526020013373ffffffffffffffffffffffffffffffffffffffff16815260200160006001811115610d2757610d26610fff565b5b815250600360006001548152602001908152602001600020600082015181600001556020820151816001019081610d5e9190611604565b506040820151816002019081610d749190611604565b506060820151816003019081610d8a9190611604565b506080820151816004019081610da09190611604565b5060a0820151816005019081610db69190611604565b5060c0820151816006019081610dcc9190611604565b5060e082015181600701556101008201518160080160006101000a81548173ffffffffffffffffffffffffffffffffffffffff021916908373ffffffffffffffffffffffffffffffffffffffff1602179055506101208201518160080160146101000a81548160ff02191690836001811115610e4b57610e4a610fff565b5b02179055509050507f760753bee03902e2bae5e8e5852c8f5df0eca1426ae1dcb17469a16a2db0200560015488888888888888336000604051610e979a999897969594939291906117fc565b60405180910390a150505050505050565b6000604051905090565b600080fd5b600080fd5b6000819050919050565b610ecf81610ebc565b8114610eda57600080fd5b50565b600081359050610eec81610ec6565b92915050565b600060208284031215610f0857610f07610eb2565b5b6000610f1684828501610edd565b91505092915050565b610f2881610ebc565b82525050565b600081519050919050565b600082825260208201905092915050565b60005b83811015610f68578082015181840152602081019050610f4d565b60008484015250505050565b6000601f19601f8301169050919050565b6000610f9082610f2e565b610f9a8185610f39565b9350610faa818560208601610f4a565b610fb381610f74565b840191505092915050565b600073ffffffffffffffffffffffffffffffffffffffff82169050919050565b6000610fe982610fbe565b9050919050565b610ff981610fde565b82525050565b7f4e487b7100000000000000000000000000000000000000000000000000000000600052602160045260246000fd5b6002811061103f5761103e610fff565b5b50565b60008190506110508261102e565b919050565b600061106082611042565b9050919050565b61107081611055565b82525050565b60006101408201905061108c600083018d610f1f565b818103602083015261109e818c610f85565b905081810360408301526110b2818b610f85565b905081810360608301526110c6818a610f85565b905081810360808301526110da8189610f85565b905081810360a08301526110ee8188610f85565b905081810360c08301526111028187610f85565b905061111160e0830186610f1f565b61111f610100830185610ff0565b61112d610120830184611067565b9b9a5050505050505050505050565b600060208201905081810360008301526111568184610f85565b905092915050565b60006020820190506111736000830184610f1f565b92915050565b600080fd5b600080fd5b7f4e487b7100000000000000000000000000000000000000000000000000000000600052604160045260246000fd5b6111bb82610f74565b810181811067ffffffffffffffff821117156111da576111d9611183565b5b80604052505050565b60006111ed610ea8565b90506111f982826111b2565b919050565b600067ffffffffffffffff82111561121957611218611183565b5b61122282610f74565b9050602081019050919050565b82818337600083830152505050565b600061125161124c846111fe565b6111e3565b90508281526020810184848401111561126d5761126c61117e565b5b61127884828561122f565b509392505050565b600082601f83011261129557611294611179565b5b81356112a584826020860161123e565b91505092915050565b600080600080600080600060e0888a0312156112cd576112cc610eb2565b5b600088013567ffffffffffffffff8111156112eb576112ea610eb7565b5b6112f78a828b01611280565b975050602088013567ffffffffffffffff81111561131857611317610eb7565b5b6113248a828b01611280565b965050604088013567ffffffffffffffff81111561134557611344610eb7565b5b6113518a828b01611280565b955050606088013567ffffffffffffffff81111561137257611371610eb7565b5b61137e8a828b01611280565b945050608088013567ffffffffffffffff81111561139f5761139e610eb7565b5b6113ab8a828b01611280565b93505060a088013567ffffffffffffffff8111156113cc576113cb610eb7565b5b6113d88a828b01611280565b92505060c06113e98a828b01610edd565b91505092959891949750929550565b7f4e487b7100000000000000000000000000000000000000000000000000000000600052602260045260246000fd5b6000600282049050600182168061143f57607f821691505b602082108103611452576114516113f8565b5b50919050565b60008190508160005260206000209050919050565b60006020601f8301049050919050565b600082821b905092915050565b6000600883026114ba7fffffffffffffffffffffffffffffffffffffffffffffffffffffffffffffffff8261147d565b6114c4868361147d565b95508019841693508086168417925050509392505050565b6000819050919050565b60006115016114fc6114f784610ebc565b6114dc565b610ebc565b9050919050565b6000819050919050565b61151b836114e6565b61152f61152782611508565b84845461148a565b825550505050565b600090565b611544611537565b61154f818484611512565b505050565b5b818110156115735761156860008261153c565b600181019050611555565b5050565b601f8211156115b85761158981611458565b6115928461146d565b810160208510156115a1578190505b6115b56115ad8561146d565b830182611554565b50505b505050565b600082821c905092915050565b60006115db600019846008026115bd565b1980831691505092915050565b60006115f483836115ca565b9150826002028217905092915050565b61160d82610f2e565b67ffffffffffffffff81111561162657611625611183565b5b6116308254611427565b61163b828285611577565b600060209050601f83116001811461166e576000841561165c578287015190505b61166685826115e8565b8655506116ce565b601f19841661167c86611458565b60005b828110156116a45784890151825560018201915060208501945060208101905061167f565b868310156116c157848901516116bd601f8916826115ca565b8355505b6001600288020188555050505b505050505050565b600060a0820190506116eb6000830188610f1f565b81810360208301526116fd8187610f85565b905061170c6040830186610f1f565b6117196060830185610ff0565b6117266080830184611067565b9695505050505050565b7f4e487b7100000000000000000000000000000000000000000000000000000000600052601160045260246000fd5b600061176a82610ebc565b91507fffffffffffffffffffffffffffffffffffffffffffffffffffffffffffffffff820361179c5761179b611730565b5b600182019050919050565b60006117c26117bd6117b884610fbe565b6114dc565b610fbe565b9050919050565b60006117d4826117a7565b9050919050565b60006117e6826117c9565b9050919050565b6117f6816117db565b82525050565b600061014082019050611812600083018d610f1f565b8181036020830152611824818c610f85565b90508181036040830152611838818b610f85565b9050818103606083015261184c818a610f85565b905081810360808301526118608189610f85565b905081810360a08301526118748188610f85565b905081810360c08301526118888187610f85565b905061189760e0830186610f1f565b6118a56101008301856117ed565b6118b3610120830184611067565b9b9a505050505050505050505056fea2646970667358221220691a393c1e909259fae5d180f3f3730df5dd647b7782579f20eba676653e8e1764736f6c63430008130033",
  "immutableReferences": {},
  "source": "// SPDX-License-Identifier: MIT\r\npragma solidity ^0.8.19;\r\n\r\ncontract JewelleryContract{\r\n\r\n    enum JewelleryStatus {Available, Sold}\r\n    string companyName;\r\n    uint jewelleryCount;\r\n\r\n    address ownerId;\r\n\r\n    constructor(){\r\n        companyName = \"Radiance\";\r\n    }\r\n\r\n    // Declaring a structure petDetails\r\n    struct JewelleryDetails {\r\n        uint jewelId;\r\n        string jewelName;\r\n        string jewelType;  // necklace, bracelets, etc\r\n        string jewelMaterial; // silver, gold, platinum, etc\r\n        string gemstoneType; // ruby, emerald, diamond, amethyst, etc\r\n        string productionDate; // when the item was produced or acquired\r\n        string description;\r\n        uint price;\r\n        address payable ownerId;\r\n        JewelleryStatus status;    \r\n        \r\n        }\r\n        \r\n        mapping(uint => JewelleryDetails) public listOfJewels; \r\n\r\n    event JewelleryCreated(\r\n        uint id,\r\n        string name,\r\n        string jewelType,\r\n        string material,\r\n        string gemstoneType,\r\n        string productionDate,\r\n        string description,\r\n        uint price,\r\n        address owner,\r\n        JewelleryStatus status\r\n    );\r\n    \r\n    //create an event\r\n    event JewelleryPurchased(\r\n        uint id,\r\n        string name,\r\n        uint price,\r\n        address payable owner,\r\n        JewelleryStatus status\r\n    );\r\n\r\n\r\n\r\n    //function to add jewellery to the listOfJewels array\r\n    function addJewellery(string memory jewelName,\r\n                        string memory jewelType, \r\n                        string memory jewelMaterial, \r\n                        string memory gemstoneType, \r\n                        string memory productionDate, \r\n                        string memory description, \r\n                        uint256 price) public {\r\n        // Require a valid name\r\n        require(bytes(jewelName).length > 0);\r\n        // Require a valid price\r\n        require(price > 0);\r\n        //Increment jewellery count\r\n        jewelleryCount++;\r\n        //create/add the jewellery                    \r\n        listOfJewels[jewelleryCount] = JewelleryDetails(jewelleryCount, jewelName, jewelType, jewelMaterial, gemstoneType, productionDate, description, price, payable(msg.sender), JewelleryStatus.Available);\r\n        // trigger an event \r\n        emit JewelleryCreated(jewelleryCount, jewelName, jewelType, jewelMaterial, gemstoneType, productionDate, description, price, payable(msg.sender), JewelleryStatus.Available);\r\n    }\r\n\r\n   \r\n    //function get pet count()public{\r\n    function getJewelleryCount() public view returns(uint){\r\n        return jewelleryCount;\r\n    }\r\n    \r\n    //function addPet() public \r\n    function getCompanyName() public view returns(string memory){\r\n        return companyName;\r\n    }\r\n\r\n    function purchaseJewellery(uint _id) public payable {\r\n        // Fetch the product\r\n        JewelleryDetails memory _jewel = listOfJewels[_id];\r\n        // Fetch the owner\r\n        address payable _seller = _jewel.ownerId;\r\n        // Make sure the product has a valid id\r\n        require(_jewel.jewelId > 0 && _jewel.jewelId <= jewelleryCount);\r\n        // Require that there is enough Ether in the transaction\r\n        require(msg.value >= _jewel.price);\r\n        // Require that the product has not been purchased already\r\n        require(_jewel.status == JewelleryStatus.Available);\r\n        // Require that the buyer is not the seller\r\n        require(_seller != msg.sender);\r\n        // Transfer ownership to the buyer\r\n        _jewel.ownerId = payable(msg.sender);\r\n        // Mark as purchased\r\n        _jewel.status = JewelleryStatus.Sold;\r\n        // Update the product\r\n        listOfJewels[_id] = _jewel;\r\n        // Pay the seller by sending them Ether\r\n        payable(_seller).transfer(msg.value);\r\n        // Trigger an event\r\n        emit JewelleryPurchased(jewelleryCount, _jewel.jewelName, _jewel.price, payable(msg.sender), JewelleryStatus.Sold);\r\n    }\r\n\r\n\r\n}",
  "sourcePath": "C:\\Users\\C373\\Documents\\code\\BlockChain\\GA\\contracts\\JewelleryContract.sol",
  "compiler": {
    "name": "solc",
    "version": "0.8.19+commit.7dd6d404.Emscripten.clang"
  },
  "schemaVersion": "3.4.13",
  "updatedAt": "2023-08-16T05:21:29.039Z",
  "devdoc": {
    "kind": "dev",
    "methods": {},
    "version": 1
  },
  "userdoc": {
    "kind": "user",
    "methods": {},
    "version": 1
  }
}