{
  "contractName": "JewelleryContract",
  "abi": [
    {
      "inputs": [],
      "stateMutability": "nonpayable",
      "type": "constructor"
    },
    {
      "anonymous": false,
      "inputs": [
        {
          "indexed": false,
          "internalType": "uint256",
          "name": "id",
          "type": "uint256"
        },
        {
          "indexed": false,
          "internalType": "string",
          "name": "name",
          "type": "string"
        },
        {
          "indexed": false,
          "internalType": "string",
          "name": "jewelType",
          "type": "string"
        },
        {
          "indexed": false,
          "internalType": "string",
          "name": "material",
          "type": "string"
        },
        {
          "indexed": false,
          "internalType": "string",
          "name": "gemstoneType",
          "type": "string"
        },
        {
          "indexed": false,
          "internalType": "string",
          "name": "productionDate",
          "type": "string"
        },
        {
          "indexed": false,
          "internalType": "string",
          "name": "description",
          "type": "string"
        },
        {
          "indexed": false,
          "internalType": "uint256",
          "name": "price",
          "type": "uint256"
        },
        {
          "indexed": false,
          "internalType": "address",
          "name": "owner",
          "type": "address"
        },
        {
          "indexed": false,
          "internalType": "enum JewelleryContract.JewelleryStatus",
          "name": "status",
          "type": "uint8"
        }
      ],
      "name": "JewelleryCreated",
      "type": "event"
    },
    {
      "anonymous": false,
      "inputs": [
        {
          "indexed": false,
          "internalType": "uint256",
          "name": "id",
          "type": "uint256"
        },
        {
          "indexed": false,
          "internalType": "string",
          "name": "name",
          "type": "string"
        },
        {
          "indexed": false,
          "internalType": "uint256",
          "name": "price",
          "type": "uint256"
        },
        {
          "indexed": false,
          "internalType": "address payable",
          "name": "owner",
          "type": "address"
        },
        {
          "indexed": false,
          "internalType": "enum JewelleryContract.JewelleryStatus",
          "name": "status",
          "type": "uint8"
        }
      ],
      "name": "JewelleryPurchased",
      "type": "event"
    },
    {
      "inputs": [],
      "name": "currentStatus",
      "outputs": [
        {
          "internalType": "enum JewelleryContract.JewelleryStatus",
          "name": "",
          "type": "uint8"
        }
      ],
      "stateMutability": "view",
      "type": "function",
      "constant": true
    },
    {
      "inputs": [],
      "name": "jewelleryCount",
      "outputs": [
        {
          "internalType": "uint256",
          "name": "",
          "type": "uint256"
        }
      ],
      "stateMutability": "view",
      "type": "function",
      "constant": true
    },
    {
      "inputs": [
        {
          "internalType": "uint256",
          "name": "",
          "type": "uint256"
        }
      ],
      "name": "listOfJewels",
      "outputs": [
        {
          "internalType": "uint256",
          "name": "jewelId",
          "type": "uint256"
        },
        {
          "internalType": "string",
          "name": "jewelName",
          "type": "string"
        },
        {
          "internalType": "string",
          "name": "jewelType",
          "type": "string"
        },
        {
          "internalType": "string",
          "name": "jewelMaterial",
          "type": "string"
        },
        {
          "internalType": "string",
          "name": "gemstoneType",
          "type": "string"
        },
        {
          "internalType": "string",
          "name": "productionDate",
          "type": "string"
        },
        {
          "internalType": "string",
          "name": "description",
          "type": "string"
        },
        {
          "internalType": "uint256",
          "name": "price",
          "type": "uint256"
        },
        {
          "internalType": "address payable",
          "name": "ownerId",
          "type": "address"
        },
        {
          "internalType": "enum JewelleryContract.JewelleryStatus",
          "name": "status",
          "type": "uint8"
        }
      ],
      "stateMutability": "view",
      "type": "function",
      "constant": true
    },
    {
      "inputs": [],
      "name": "ownerCount",
      "outputs": [
        {
          "internalType": "uint256",
          "name": "",
          "type": "uint256"
        }
      ],
      "stateMutability": "view",
      "type": "function",
      "constant": true
    },
    {
      "inputs": [],
      "name": "getJewelleryAvailability",
      "outputs": [
        {
          "internalType": "enum JewelleryContract.JewelleryStatus",
          "name": "",
          "type": "uint8"
        }
      ],
      "stateMutability": "view",
      "type": "function",
      "constant": true
    },
    {
      "inputs": [
        {
          "internalType": "string",
          "name": "jewelName",
          "type": "string"
        },
        {
          "internalType": "string",
          "name": "jewelType",
          "type": "string"
        },
        {
          "internalType": "string",
          "name": "jewelMaterial",
          "type": "string"
        },
        {
          "internalType": "string",
          "name": "gemstoneType",
          "type": "string"
        },
        {
          "internalType": "string",
          "name": "productionDate",
          "type": "string"
        },
        {
          "internalType": "string",
          "name": "description",
          "type": "string"
        },
        {
          "internalType": "uint256",
          "name": "price",
          "type": "uint256"
        }
      ],
      "name": "addJewellery",
      "outputs": [],
      "stateMutability": "nonpayable",
      "type": "function"
    },
    {
      "inputs": [
        {
          "internalType": "uint256",
          "name": "_id",
          "type": "uint256"
        }
      ],
      "name": "purchaseJewellery",
      "outputs": [],
      "stateMutability": "payable",
      "type": "function",
      "payable": true
    },
    {
      "inputs": [],
      "name": "getJewelleryCount",
      "outputs": [
        {
          "internalType": "uint256",
          "name": "",
          "type": "uint256"
        }
      ],
      "stateMutability": "view",
      "type": "function",
      "constant": true
    },
    {
      "inputs": [
        {
          "internalType": "uint256",
          "name": "index",
          "type": "uint256"
        }
      ],
      "name": "getJewelleryDetails",
      "outputs": [
        {
          "components": [
            {
              "internalType": "uint256",
              "name": "jewelId",
              "type": "uint256"
            },
            {
              "internalType": "string",
              "name": "jewelName",
              "type": "string"
            },
            {
              "internalType": "string",
              "name": "jewelType",
              "type": "string"
            },
            {
              "internalType": "string",
              "name": "jewelMaterial",
              "type": "string"
            },
            {
              "internalType": "string",
              "name": "gemstoneType",
              "type": "string"
            },
            {
              "internalType": "string",
              "name": "productionDate",
              "type": "string"
            },
            {
              "internalType": "string",
              "name": "description",
              "type": "string"
            },
            {
              "internalType": "uint256",
              "name": "price",
              "type": "uint256"
            },
            {
              "internalType": "address payable",
              "name": "ownerId",
              "type": "address"
            },
            {
              "internalType": "enum JewelleryContract.JewelleryStatus",
              "name": "status",
              "type": "uint8"
            }
          ],
          "internalType": "struct JewelleryContract.JewelleryDetails",
          "name": "",
          "type": "tuple"
        }
      ],
      "stateMutability": "view",
      "type": "function",
      "constant": true
    },
    {
      "inputs": [],
      "name": "getOwnerId",
      "outputs": [
        {
          "internalType": "address",
          "name": "",
          "type": "address"
        }
      ],
      "stateMutability": "view",
      "type": "function",
      "constant": true
    },
    {
      "inputs": [],
      "name": "getCompanyName",
      "outputs": [
        {
          "internalType": "string",
          "name": "",
          "type": "string"
        }
      ],
      "stateMutability": "view",
      "type": "function",
      "constant": true
    }
  ],
  "bytecode": "0x60806040523480156200001157600080fd5b5060016000806101000a81548160ff021916908360018111156200003a576200003962000094565b5b0217905550600a6001819055506040518060400160405280600881526020017f52616469616e6365000000000000000000000000000000000000000000000000815250600390816200008d91906200033d565b5062000424565b7f4e487b7100000000000000000000000000000000000000000000000000000000600052602160045260246000fd5b600081519050919050565b7f4e487b7100000000000000000000000000000000000000000000000000000000600052604160045260246000fd5b7f4e487b7100000000000000000000000000000000000000000000000000000000600052602260045260246000fd5b600060028204905060018216806200014557607f821691505b6020821081036200015b576200015a620000fd565b5b50919050565b60008190508160005260206000209050919050565b60006020601f8301049050919050565b600082821b905092915050565b600060088302620001c57fffffffffffffffffffffffffffffffffffffffffffffffffffffffffffffffff8262000186565b620001d1868362000186565b95508019841693508086168417925050509392505050565b6000819050919050565b6000819050919050565b60006200021e620002186200021284620001e9565b620001f3565b620001e9565b9050919050565b6000819050919050565b6200023a83620001fd565b62000252620002498262000225565b84845462000193565b825550505050565b600090565b620002696200025a565b620002768184846200022f565b505050565b5b818110156200029e57620002926000826200025f565b6001810190506200027c565b5050565b601f821115620002ed57620002b78162000161565b620002c28462000176565b81016020851015620002d2578190505b620002ea620002e18562000176565b8301826200027b565b50505b505050565b600082821c905092915050565b60006200031260001984600802620002f2565b1980831691505092915050565b60006200032d8383620002ff565b9150826002028217905092915050565b6200034882620000c3565b67ffffffffffffffff811115620003645762000363620000ce565b5b6200037082546200012c565b6200037d828285620002a2565b600060209050601f831160018114620003b55760008415620003a0578287015190505b620003ac85826200031f565b8655506200041c565b601f198416620003c58662000161565b60005b82811015620003ef57848901518255600182019150602085019450602081019050620003c8565b868310156200040f57848901516200040b601f891682620002ff565b8355505b6001600288020188555050505b505050505050565b61215780620004346000396000f3fe60806040526004361061009c5760003560e01c806343cfbd651161006457806343cfbd65146101a55780634b8b9e86146101d05780637d60b9c1146101fb57806387183ada146102265780639e543b5d14610242578063ef8a92351461026b5761009c565b80630db02622146100a15780630f279959146100cc57806314c69358146100f75780631f5072f21461013d5780633a1edcc914610168575b600080fd5b3480156100ad57600080fd5b506100b6610296565b6040516100c39190611533565b60405180910390f35b3480156100d857600080fd5b506100e161029c565b6040516100ee91906115c5565b60405180910390f35b34801561010357600080fd5b5061011e60048036038101906101199190611620565b6102b2565b6040516101349a9998979695949392919061171e565b60405180910390f35b34801561014957600080fd5b50610152610663565b60405161015f9190611805565b60405180910390f35b34801561017457600080fd5b5061018f600480360381019061018a9190611620565b61066b565b60405161019c9190611994565b60405180910390f35b3480156101b157600080fd5b506101ba610aaa565b6040516101c791906119b6565b60405180910390f35b3480156101dc57600080fd5b506101e5610b3c565b6040516101f29190611533565b60405180910390f35b34801561020757600080fd5b50610210610b42565b60405161021d9190611533565b60405180910390f35b610240600480360381019061023b9190611620565b610b4c565b005b34801561024e57600080fd5b5061026960048036038101906102649190611b0d565b611254565b005b34801561027757600080fd5b5061028061148e565b60405161028d91906115c5565b60405180910390f35b60025481565b60008060009054906101000a900460ff16905090565b60046020528060005260406000206000915090508060000154908060010180546102db90611c86565b80601f016020809104026020016040519081016040528092919081815260200182805461030790611c86565b80156103545780601f1061032957610100808354040283529160200191610354565b820191906000526020600020905b81548152906001019060200180831161033757829003601f168201915b50505050509080600201805461036990611c86565b80601f016020809104026020016040519081016040528092919081815260200182805461039590611c86565b80156103e25780601f106103b7576101008083540402835291602001916103e2565b820191906000526020600020905b8154815290600101906020018083116103c557829003601f168201915b5050505050908060030180546103f790611c86565b80601f016020809104026020016040519081016040528092919081815260200182805461042390611c86565b80156104705780601f1061044557610100808354040283529160200191610470565b820191906000526020600020905b81548152906001019060200180831161045357829003601f168201915b50505050509080600401805461048590611c86565b80601f01602080910402602001604051908101604052809291908181526020018280546104b190611c86565b80156104fe5780601f106104d3576101008083540402835291602001916104fe565b820191906000526020600020905b8154815290600101906020018083116104e157829003601f168201915b50505050509080600501805461051390611c86565b80601f016020809104026020016040519081016040528092919081815260200182805461053f90611c86565b801561058c5780601f106105615761010080835404028352916020019161058c565b820191906000526020600020905b81548152906001019060200180831161056f57829003601f168201915b5050505050908060060180546105a190611c86565b80601f01602080910402602001604051908101604052809291908181526020018280546105cd90611c86565b801561061a5780601f106105ef5761010080835404028352916020019161061a565b820191906000526020600020905b8154815290600101906020018083116105fd57829003601f168201915b5050505050908060070154908060080160009054906101000a900473ffffffffffffffffffffffffffffffffffffffff16908060080160149054906101000a900460ff1690508a565b600033905090565b61067361149f565b6004600083815260200190815260200160002060405180610140016040529081600082015481526020016001820180546106ac90611c86565b80601f01602080910402602001604051908101604052809291908181526020018280546106d890611c86565b80156107255780601f106106fa57610100808354040283529160200191610725565b820191906000526020600020905b81548152906001019060200180831161070857829003601f168201915b5050505050815260200160028201805461073e90611c86565b80601f016020809104026020016040519081016040528092919081815260200182805461076a90611c86565b80156107b75780601f1061078c576101008083540402835291602001916107b7565b820191906000526020600020905b81548152906001019060200180831161079a57829003601f168201915b505050505081526020016003820180546107d090611c86565b80601f01602080910402602001604051908101604052809291908181526020018280546107fc90611c86565b80156108495780601f1061081e57610100808354040283529160200191610849565b820191906000526020600020905b81548152906001019060200180831161082c57829003601f168201915b5050505050815260200160048201805461086290611c86565b80601f016020809104026020016040519081016040528092919081815260200182805461088e90611c86565b80156108db5780601f106108b0576101008083540402835291602001916108db565b820191906000526020600020905b8154815290600101906020018083116108be57829003601f168201915b505050505081526020016005820180546108f490611c86565b80601f016020809104026020016040519081016040528092919081815260200182805461092090611c86565b801561096d5780601f106109425761010080835404028352916020019161096d565b820191906000526020600020905b81548152906001019060200180831161095057829003601f168201915b5050505050815260200160068201805461098690611c86565b80601f01602080910402602001604051908101604052809291908181526020018280546109b290611c86565b80156109ff5780601f106109d4576101008083540402835291602001916109ff565b820191906000526020600020905b8154815290600101906020018083116109e257829003601f168201915b50505050508152602001600782015481526020016008820160009054906101000a900473ffffffffffffffffffffffffffffffffffffffff1673ffffffffffffffffffffffffffffffffffffffff1673ffffffffffffffffffffffffffffffffffffffff1681526020016008820160149054906101000a900460ff166001811115610a8d57610a8c61154e565b5b6001811115610a9f57610a9e61154e565b5b815250509050919050565b606060038054610ab990611c86565b80601f0160208091040260200160405190810160405280929190818152602001828054610ae590611c86565b8015610b325780601f10610b0757610100808354040283529160200191610b32565b820191906000526020600020905b815481529060010190602001808311610b1557829003601f168201915b5050505050905090565b60015481565b6000600154905090565b6000600460008381526020019081526020016000206040518061014001604052908160008201548152602001600182018054610b8790611c86565b80601f0160208091040260200160405190810160405280929190818152602001828054610bb390611c86565b8015610c005780601f10610bd557610100808354040283529160200191610c00565b820191906000526020600020905b815481529060010190602001808311610be357829003601f168201915b50505050508152602001600282018054610c1990611c86565b80601f0160208091040260200160405190810160405280929190818152602001828054610c4590611c86565b8015610c925780601f10610c6757610100808354040283529160200191610c92565b820191906000526020600020905b815481529060010190602001808311610c7557829003601f168201915b50505050508152602001600382018054610cab90611c86565b80601f0160208091040260200160405190810160405280929190818152602001828054610cd790611c86565b8015610d245780601f10610cf957610100808354040283529160200191610d24565b820191906000526020600020905b815481529060010190602001808311610d0757829003601f168201915b50505050508152602001600482018054610d3d90611c86565b80601f0160208091040260200160405190810160405280929190818152602001828054610d6990611c86565b8015610db65780601f10610d8b57610100808354040283529160200191610db6565b820191906000526020600020905b815481529060010190602001808311610d9957829003601f168201915b50505050508152602001600582018054610dcf90611c86565b80601f0160208091040260200160405190810160405280929190818152602001828054610dfb90611c86565b8015610e485780601f10610e1d57610100808354040283529160200191610e48565b820191906000526020600020905b815481529060010190602001808311610e2b57829003601f168201915b50505050508152602001600682018054610e6190611c86565b80601f0160208091040260200160405190810160405280929190818152602001828054610e8d90611c86565b8015610eda5780601f10610eaf57610100808354040283529160200191610eda565b820191906000526020600020905b815481529060010190602001808311610ebd57829003601f168201915b50505050508152602001600782015481526020016008820160009054906101000a900473ffffffffffffffffffffffffffffffffffffffff1673ffffffffffffffffffffffffffffffffffffffff1673ffffffffffffffffffffffffffffffffffffffff1681526020016008820160149054906101000a900460ff166001811115610f6857610f6761154e565b5b6001811115610f7a57610f7961154e565b5b8152505090506000816101000151905060008260000151118015610fa45750600154826000015111155b610fad57600080fd5b8160e00151341015610fbe57600080fd5b600180811115610fd157610fd061154e565b5b8261012001516001811115610fe957610fe861154e565b5b14610ff357600080fd5b3373ffffffffffffffffffffffffffffffffffffffff168173ffffffffffffffffffffffffffffffffffffffff160361102b57600080fd5b3382610100019073ffffffffffffffffffffffffffffffffffffffff16908173ffffffffffffffffffffffffffffffffffffffff16815250506000826101200190600181111561107e5761107d61154e565b5b908160018111156110925761109161154e565b5b8152505081600460008581526020019081526020016000206000820151816000015560208201518160010190816110c99190611e63565b5060408201518160020190816110df9190611e63565b5060608201518160030190816110f59190611e63565b50608082015181600401908161110b9190611e63565b5060a08201518160050190816111219190611e63565b5060c08201518160060190816111379190611e63565b5060e082015181600701556101008201518160080160006101000a81548173ffffffffffffffffffffffffffffffffffffffff021916908373ffffffffffffffffffffffffffffffffffffffff1602179055506101208201518160080160146101000a81548160ff021916908360018111156111b6576111b561154e565b5b02179055509050508073ffffffffffffffffffffffffffffffffffffffff166108fc349081150290604051600060405180830381858888f19350505050158015611204573d6000803e3d6000fd5b507f8fa07404d82949fb45281597fb12aafae2f5bc1f2fbb0b389f894810e892f8fc60015483602001518460e00151336000604051611247959493929190611f35565b60405180910390a1505050565b600087511161126257600080fd5b6000811161126f57600080fd5b6001600081548092919061128290611fbe565b919050555060405180610140016040528060015481526020018881526020018781526020018681526020018581526020018481526020018381526020018281526020013373ffffffffffffffffffffffffffffffffffffffff16815260200160008054906101000a900460ff1660018111156113015761130061154e565b5b8152506004600060015481526020019081526020016000206000820151816000015560208201518160010190816113389190611e63565b50604082015181600201908161134e9190611e63565b5060608201518160030190816113649190611e63565b50608082015181600401908161137a9190611e63565b5060a08201518160050190816113909190611e63565b5060c08201518160060190816113a69190611e63565b5060e082015181600701556101008201518160080160006101000a81548173ffffffffffffffffffffffffffffffffffffffff021916908373ffffffffffffffffffffffffffffffffffffffff1602179055506101208201518160080160146101000a81548160ff021916908360018111156114255761142461154e565b5b02179055509050507f760753bee03902e2bae5e8e5852c8f5df0eca1426ae1dcb17469a16a2db02005600154888888888888883360008054906101000a900460ff1660405161147d9a9998979695949392919061205b565b60405180910390a150505050505050565b60008054906101000a900460ff1681565b6040518061014001604052806000815260200160608152602001606081526020016060815260200160608152602001606081526020016060815260200160008152602001600073ffffffffffffffffffffffffffffffffffffffff168152602001600060018111156115145761151361154e565b5b81525090565b6000819050919050565b61152d8161151a565b82525050565b60006020820190506115486000830184611524565b92915050565b7f4e487b7100000000000000000000000000000000000000000000000000000000600052602160045260246000fd5b6002811061158e5761158d61154e565b5b50565b600081905061159f8261157d565b919050565b60006115af82611591565b9050919050565b6115bf816115a4565b82525050565b60006020820190506115da60008301846115b6565b92915050565b6000604051905090565b600080fd5b600080fd5b6115fd8161151a565b811461160857600080fd5b50565b60008135905061161a816115f4565b92915050565b600060208284031215611636576116356115ea565b5b60006116448482850161160b565b91505092915050565b600081519050919050565b600082825260208201905092915050565b60005b8381101561168757808201518184015260208101905061166c565b60008484015250505050565b6000601f19601f8301169050919050565b60006116af8261164d565b6116b98185611658565b93506116c9818560208601611669565b6116d281611693565b840191505092915050565b600073ffffffffffffffffffffffffffffffffffffffff82169050919050565b6000611708826116dd565b9050919050565b611718816116fd565b82525050565b600061014082019050611734600083018d611524565b8181036020830152611746818c6116a4565b9050818103604083015261175a818b6116a4565b9050818103606083015261176e818a6116a4565b9050818103608083015261178281896116a4565b905081810360a083015261179681886116a4565b905081810360c08301526117aa81876116a4565b90506117b960e0830186611524565b6117c761010083018561170f565b6117d56101208301846115b6565b9b9a5050505050505050505050565b60006117ef826116dd565b9050919050565b6117ff816117e4565b82525050565b600060208201905061181a60008301846117f6565b92915050565b6118298161151a565b82525050565b600082825260208201905092915050565b600061184b8261164d565b611855818561182f565b9350611865818560208601611669565b61186e81611693565b840191505092915050565b611882816116fd565b82525050565b611891816115a4565b82525050565b6000610140830160008301516118b06000860182611820565b50602083015184820360208601526118c88282611840565b915050604083015184820360408601526118e28282611840565b915050606083015184820360608601526118fc8282611840565b915050608083015184820360808601526119168282611840565b91505060a083015184820360a08601526119308282611840565b91505060c083015184820360c086015261194a8282611840565b91505060e083015161195f60e0860182611820565b50610100830151611974610100860182611879565b50610120830151611989610120860182611888565b508091505092915050565b600060208201905081810360008301526119ae8184611897565b905092915050565b600060208201905081810360008301526119d081846116a4565b905092915050565b600080fd5b600080fd5b7f4e487b7100000000000000000000000000000000000000000000000000000000600052604160045260246000fd5b611a1a82611693565b810181811067ffffffffffffffff82111715611a3957611a386119e2565b5b80604052505050565b6000611a4c6115e0565b9050611a588282611a11565b919050565b600067ffffffffffffffff821115611a7857611a776119e2565b5b611a8182611693565b9050602081019050919050565b82818337600083830152505050565b6000611ab0611aab84611a5d565b611a42565b905082815260208101848484011115611acc57611acb6119dd565b5b611ad7848285611a8e565b509392505050565b600082601f830112611af457611af36119d8565b5b8135611b04848260208601611a9d565b91505092915050565b600080600080600080600060e0888a031215611b2c57611b2b6115ea565b5b600088013567ffffffffffffffff811115611b4a57611b496115ef565b5b611b568a828b01611adf565b975050602088013567ffffffffffffffff811115611b7757611b766115ef565b5b611b838a828b01611adf565b965050604088013567ffffffffffffffff811115611ba457611ba36115ef565b5b611bb08a828b01611adf565b955050606088013567ffffffffffffffff811115611bd157611bd06115ef565b5b611bdd8a828b01611adf565b945050608088013567ffffffffffffffff811115611bfe57611bfd6115ef565b5b611c0a8a828b01611adf565b93505060a088013567ffffffffffffffff811115611c2b57611c2a6115ef565b5b611c378a828b01611adf565b92505060c0611c488a828b0161160b565b91505092959891949750929550565b7f4e487b7100000000000000000000000000000000000000000000000000000000600052602260045260246000fd5b60006002820490506001821680611c9e57607f821691505b602082108103611cb157611cb0611c57565b5b50919050565b60008190508160005260206000209050919050565b60006020601f8301049050919050565b600082821b905092915050565b600060088302611d197fffffffffffffffffffffffffffffffffffffffffffffffffffffffffffffffff82611cdc565b611d238683611cdc565b95508019841693508086168417925050509392505050565b6000819050919050565b6000611d60611d5b611d568461151a565b611d3b565b61151a565b9050919050565b6000819050919050565b611d7a83611d45565b611d8e611d8682611d67565b848454611ce9565b825550505050565b600090565b611da3611d96565b611dae818484611d71565b505050565b5b81811015611dd257611dc7600082611d9b565b600181019050611db4565b5050565b601f821115611e1757611de881611cb7565b611df184611ccc565b81016020851015611e00578190505b611e14611e0c85611ccc565b830182611db3565b50505b505050565b600082821c905092915050565b6000611e3a60001984600802611e1c565b1980831691505092915050565b6000611e538383611e29565b9150826002028217905092915050565b611e6c8261164d565b67ffffffffffffffff811115611e8557611e846119e2565b5b611e8f8254611c86565b611e9a828285611dd6565b600060209050601f831160018114611ecd5760008415611ebb578287015190505b611ec58582611e47565b865550611f2d565b601f198416611edb86611cb7565b60005b82811015611f0357848901518255600182019150602085019450602081019050611ede565b86831015611f205784890151611f1c601f891682611e29565b8355505b6001600288020188555050505b505050505050565b600060a082019050611f4a6000830188611524565b8181036020830152611f5c81876116a4565b9050611f6b6040830186611524565b611f78606083018561170f565b611f8560808301846115b6565b9695505050505050565b7f4e487b7100000000000000000000000000000000000000000000000000000000600052601160045260246000fd5b6000611fc98261151a565b91507fffffffffffffffffffffffffffffffffffffffffffffffffffffffffffffffff8203611ffb57611ffa611f8f565b5b600182019050919050565b600061202161201c612017846116dd565b611d3b565b6116dd565b9050919050565b600061203382612006565b9050919050565b600061204582612028565b9050919050565b6120558161203a565b82525050565b600061014082019050612071600083018d611524565b8181036020830152612083818c6116a4565b90508181036040830152612097818b6116a4565b905081810360608301526120ab818a6116a4565b905081810360808301526120bf81896116a4565b905081810360a08301526120d381886116a4565b905081810360c08301526120e781876116a4565b90506120f660e0830186611524565b61210461010083018561204c565b6121126101208301846115b6565b9b9a505050505050505050505056fea2646970667358221220a3e217b1a39f418835078fc2943a2ff9d7535140fa97cba4c8a4b8345343cf2364736f6c63430008130033",
  "immutableReferences": {},
  "source": "// SPDX-License-Identifier: MIT\r\npragma solidity ^0.8.19;\r\n\r\ncontract JewelleryContract{\r\n    enum JewelleryStatus {Sold, Available}\r\n    JewelleryStatus public currentStatus;\r\n    uint256 public jewelleryCount; // this is the jewelId\r\n    uint256 public ownerCount; // this weill be the customer's onwerId\r\n    string companyName;\r\n    // address ownerId;\r\n    \r\n    constructor(){\r\n        currentStatus = JewelleryStatus.Available;\r\n        jewelleryCount = 10;  \r\n        companyName = \"Radiance\";\r\n        // ownerCount = 0; // default zero assigned to jewellery to indicate not sold\r\n        // ownerId = msg.sender; // self id\r\n    }\r\n\r\n    // function jewellerySold() public {\r\n    //     ownerCount += 1;\r\n    //     currentStatus = JewelleryStatus.Sold;\r\n    // }\r\n\r\n    function getJewelleryAvailability() public view returns(JewelleryStatus){\r\n        return currentStatus;\r\n    }\r\n\r\n    // Declaring a structure JewelleryDetails\r\n    struct JewelleryDetails {\r\n        uint jewelId;\r\n        string jewelName;\r\n        string jewelType;  // necklace, bracelets, etc\r\n        string jewelMaterial; // silver, gold, platinum, etc\r\n        string gemstoneType; // ruby, emerald, diamond, amethyst, etc\r\n        string productionDate; // when the item was produced or acquired\r\n        string description; \r\n        uint256 price;\r\n        address payable ownerId;\r\n        JewelleryStatus status;\r\n   }\r\n   \r\n    mapping (uint => JewelleryDetails) public listOfJewels;\r\n \r\n    event JewelleryCreated (\r\n        uint id,\r\n        string name,\r\n        string jewelType,\r\n        string material,\r\n        string gemstoneType,\r\n        string productionDate,\r\n        string description,\r\n        uint price,\r\n        address owner,\r\n        JewelleryStatus status\r\n    );\r\n    \r\n    function addJewellery(string memory jewelName,\r\n                        string memory jewelType, \r\n                        string memory jewelMaterial, \r\n                        string memory gemstoneType, \r\n                        string memory productionDate, \r\n                        string memory description, \r\n                        uint256 price) public {\r\n        // Require a valid name\r\n        require(bytes(jewelName).length > 0);\r\n        // Require a valid price\r\n        require(price > 0);\r\n        //Increment jewellery count\r\n        jewelleryCount++;\r\n        //create/add the jewellery                    \r\n        listOfJewels[jewelleryCount] = JewelleryDetails(jewelleryCount, jewelName, jewelType, jewelMaterial, gemstoneType, productionDate, description, price, payable(msg.sender), currentStatus);\r\n        // trigger an event \r\n        emit JewelleryCreated(jewelleryCount, jewelName, jewelType, jewelMaterial, gemstoneType, productionDate, description, price, payable(msg.sender), currentStatus);\r\n    }\r\n\r\n    function purchaseJewellery(uint _id) public payable {\r\n        // Fetch the product\r\n        JewelleryDetails memory _jewel = listOfJewels[_id];\r\n        // Fetch the owner\r\n        address payable _seller = _jewel.ownerId;\r\n        // Make sure the product has a valid id\r\n        require(_jewel.jewelId > 0 && _jewel.jewelId <= jewelleryCount);\r\n        // Require that there is enough Ether in the transaction\r\n        require(msg.value >= _jewel.price);\r\n        // Require that the product has not been purchased already\r\n        require(_jewel.status == JewelleryStatus.Available);\r\n        // Require that the buyer is not the seller\r\n        require(_seller != msg.sender);\r\n        // Transfer ownership to the buyer\r\n        _jewel.ownerId = payable(msg.sender);\r\n        // Mark as purchased\r\n        _jewel.status = JewelleryStatus.Sold;\r\n        // Update the product\r\n        listOfJewels[_id] = _jewel;\r\n        // Pay the seller by sending them Ether\r\n        payable(_seller).transfer(msg.value);\r\n        // Trigger an event\r\n        emit JewelleryPurchased(jewelleryCount, _jewel.jewelName, _jewel.price, payable(msg.sender), JewelleryStatus.Sold);\r\n    }\r\n\r\n    event JewelleryPurchased(\r\n        uint id,\r\n        string name,\r\n        uint price,\r\n        address payable owner,\r\n        JewelleryStatus status\r\n    );\r\n\r\n    function getJewelleryCount()public view returns(uint256){\r\n        return jewelleryCount;\r\n    }\r\n\r\n    function getJewelleryDetails(uint index) public view returns(JewelleryDetails memory){\r\n        return listOfJewels[index];\r\n    }\r\n\r\n    function getOwnerId() public view returns (address) {\r\n        return msg.sender;\r\n    }\r\n    function getCompanyName() public view returns(string memory) {\r\n        return companyName;\r\n    }\r\n\r\n}\r\n",
  "sourcePath": "C:\\Users\\C373\\Documents\\code\\BlockChain\\GA\\contracts\\JewelleryContract.sol",
  "compiler": {
    "name": "solc",
    "version": "0.8.19+commit.7dd6d404.Emscripten.clang"
  },
  "schemaVersion": "3.4.13",
  "updatedAt": "2023-07-23T07:25:24.649Z",
  "networkType": "ethereum",
  "devdoc": {
    "kind": "dev",
    "methods": {},
    "version": 1
  },
  "userdoc": {
    "kind": "user",
    "methods": {},
    "version": 1
  }
}